:020000040800F2
:10000000680600203902000875020008770200081F
:10001000790200087B0200087D0200080000000051
:100020000000000000000000000000007F02000847
:100030008102000800000000830200088502000819
:10004000870200088702000887020008870200086C
:10005000870200088702000887020008870200085C
:10006000870200088702000887020008870200084C
:10007000870200088702000887020008870200083C
:10008000870200088702000887020008870200082C
:10009000870200088702000887020008870200081C
:1000A000870200088702000887020008870200080C
:1000B00087020008870200088702000887020008FC
:1000C00087020008870200088702000887020008EC
:1000D00087020008870200088702000887020008DC
:1000E00087020008870200088702000887020008CC
:1000F00087020008870200088702000887020008BC
:1001000087020008870200088702000887020008AB
:10011000870200088702000887020008870200089B
:10012000870200088702000887020008870200088B
:10013000870200088702000887020008870200087B
:10014000870200088702000887020008870200086B
:10015000870200088702000887020008870200085B
:10016000870200088702000887020008870200084B
:1001700087020008870200088702000800000000CC
:10018000870200088702000800F002F800F044F837
:100190000AA090E8000C82448344AAF10107DA45E2
:1001A00001D100F039F8AFF2090EBAE80F0013F0F0
:1001B000010F18BFFB1A43F001031847B80B0000EA
:1001C000D80B0000103A24BF78C878C1FAD852077B
:1001D00024BF30C830C144BF04680C6070470000C1
:1001E0000023002400250026103A28BF78C1FBD840
:1001F000520728BF30C148BF0B607047692900F023
:100200009D80782900F0D680002070471FB500F04F
:1002100097FD1FBD10B510BD00F082F91146FFF724
:10022000F5FF00F02BFD00F0A0F903B4FFF7F2FF9B
:1002300003BC00F0A7F9000016481749174B994274
:100240003CBF50F8042B41F8042BF8D314494FF06D
:1002500000028B4238BF43F8042BFAD3DFF8440086
:10026000016841F470010160BFF34F8FBFF36F8FDE
:100270000D480047FEE7FEE7FEE7FEE7FEE7FEE784
:10028000FEE7FEE7FEE7FEE708480949094A0A4B90
:1002900070470000940D00080000002008000020B6
:1002A0006806002088ED00E0890100086800002051
:1002B0006806002068020020680200200FB404498C
:1002C00010B503AA029800F0FDF810BC5DF814FB0D
:1002D000000000202DE9F0410E4604460020206277
:1002E0002046E168884730B3252805D0D4E90121AC
:1002F0009047206A401CF2E7E168204600278847C3
:10030000050018D0A5F14100192802D820354FF476
:1003100000673246294620462760FFF76FFF40B14D
:10032000012804D0F61D26F007060836D8E7361D4A
:10033000D6E72846DAE7206ABDE8F0812DE9F041EA
:100340000646002410687529314616A510D0AFF373
:100350000080002802DA404213A507E031688A07CE
:1003600001D512A502E0490704D511A5012401E039
:10037000AFF3008000210A2206F1240709E0B0FB58
:10038000F2FCB0FBF2F302FB1C003030785418464C
:10039000491C0028F3D123462A463046BDE8F041E7
:1003A00000F037B8000000002D0000002B00000016
:1003B0002000000070B504460D4621461068AFF3DA
:1003C00000802188090502D50F4A7A4402E00E4ACE
:1003D0007A440E32002104F1240305E000F00F06F8
:1003E0000009965D5E54491C0028F7D1207800234F
:1003F000000704D5702D02D009B102231132204626
:10040000BDE8704000F005B87C09000070477047F7
:1004100070472DE9F0470D4699469246044600F193
:1004200024080168880604D5E06921F010012160E4
:1004300000E00120A84201DD471B00E00027A16980
:100440007A1902EB0900081AA0612078C00602D4CC
:100450002046AFF30080002608E0D4E901211AF815
:1004600006009047206A401C761C20624E45F4DB53
:100470002078C0060AD52046AFF3008006E0D4E914
:10048000012130209047206A401C2062381EA7F1CD
:100490000107F4DC07E0D4E9012118F805009047D2
:1004A000206A401C2062281EA5F10105F3DC2046CD
:1004B000AFF300802078000602D50220BDE8F08767
:1004C0000120FBE7074B70B50D467B4400F011F8A7
:1004D0000446284600F020F810B14FF0FF3070BD00
:1004E000204670BD9307000001694A1C026108782C
:1004F000704700B58FB0CDE9013100210591054964
:100500007944CDE9031011466846FFF7E3FE0FB0CA
:1005100000BD0000E5FFFFFF007B00F0800070479A
:10052000754600F02BF8AE4605006946534620F0AC
:100530000700854618B020B5FFF7A6FEBDE82040AD
:100540004FF000064FF000074FF000084FF0000B8F
:1005500021F00701AC46ACE8C009ACE8C009ACE842
:10056000C009ACE8C0098D46704710B50446AFF32A
:1005700000802046BDE81040FFF757BE0048704796
:100580000800002001491820ABBEFEE7260002004B
:10059000704700002148C06C40F002001F49C86449
:1005A0001F48006820F440501D4908600846006854
:1005B00040F4005008600846006820F4404008609D
:1005C0000846006840F40040086015482030006884
:1005D00040F080601249203108600846006840F011
:1005E000804008600E480830006840F470400C49B4
:1005F00008310860081F006840F04000091F0860CB
:100600000846006840F08000086005480C3000682B
:1006100040F4A04002490C310860704700100240CD
:100620000004004848204E49896D41F400114C4AAD
:1006300091654B498831096821F44051C2F888100E
:100640001146896B41F4001191631146896B21F4C5
:10065000001191634349096821F00101414A116089
:100660001146096821F4805111601146096821F48E
:10067000706111601146096841F0800111601146F6
:10068000096821F400311160111D096821F400612D
:10069000121D116011460968334A1143314A121D77
:1006A000116030491031096821F070412D4A103233
:1006B00011601146096821F4700111601146096842
:1006C00021F4702111601146096821F47F41116005
:1006D0001146096821F0FF0111601146096841F0D7
:1006E000E04111601146096841F470011160114642
:1006F000096841F4702111601146096841F47F4195
:1007000011601146096841F0FF0111601549083177
:10071000096821F40041134A08321160111D09686B
:1007200021F40041121D1160111F096821F480613C
:10073000121F1160114609686FF30901116011461B
:10074000096841EA400111601146096841F400411D
:1007500011600449096841F00101024A11607047C3
:100760000010024000540040008000022DE9FC41CE
:1007700005460E4640208DF8040000208DF8050047
:10078000009001AF02233A463146284600F064F853
:1007900004461CB14FF0FF30BDE8FC8101236A46DE
:1007A0003146284600F058F8044614B16FF00100B5
:1007B000F2E70020F0E700002DE9F0410546884609
:1007C00016461F461AA0FFF779FD002F00DD1EB95F
:1007D0004FF0FF30BDE8F081284600F0FEF816A08B
:1007E000FFF76CFD01233A464146284600F0CCF85D
:1007F00013A0FFF763FD00240DE000BFA86900F01F
:1008000004000028FAD0686A3055325D21460EA0F7
:10081000FFF754FD641CBC42EFDB00BFA86900F089
:1008200040000028FAD0284600F0CCF80020D1E79C
:1008300072666F6F310A000072666F6F320A0000D5
:1008400072666F6F330A000070446174615B2569E2
:100850005D203D2025690A002DE9F04704468946C0
:1008600016461F46002F00DD1EB94FF0FF30BDE8D1
:10087000F08730A0FFF722FD204600F0AEF80023FD
:100880003A464946204600F07FF8002802DA4FF049
:10089000FF30ECE729A0FFF711FD00251CE000BFA9
:1008A000A06900F002000028FAD0A269A06900F057
:1008B000020124A0FFF702FD705DA0624FF0000866
:1008C00001E008F1010828488045FADB725D2946FD
:1008D00026A0FFF7F3FC6D1CBD42E0DB4FF00008E3
:1008E00001E008F1010820488045FADB00BFA0695B
:1008F00000F0400020B9A06900F010000028F6D0F8
:100900001EA0FFF7DBFC4FF0000800E06D1C16484E
:100910008542FBDBA06900F0100010B14FF0FF3002
:10092000A5E717A0FFF7CAFC204600F04BF800200F
:100930009DE70000666F6F310A000000666F6F323E
:100940000A00000028493243782D3E4953522026A0
:10095000204932435F4953525F5458495329202557
:10096000692025780A00000020A107007044617406
:10097000615B25695D203D2025690A0068690A00E0
:10098000666F6F330A00000070B504460D46002103
:1009900061680B480140012B02D141F4806101E004
:1009A00021F48061C5F309004FF47F0606EA024690
:1009B0003043014341F400516160002070BD0000EC
:1009C000009800FC416841F48041416000BF8169AA
:1009D00001F020010029FAD0704700BF816901F4BD
:1009E0000041B1F5004FF9D07047000010B5044642
:1009F000012C07D100F08EF800F044F8064800F012
:100A0000F1F808E0022C06D100F0D2F800F092F8DC
:100A1000024800F0E7F810BD0038014000440040F3
:100A20001748006840F070001549086008460068E3
:100A300020F0900008600846006840F0010008605F
:100A400000BF0F48006800F002000028F9D00C48F1
:100A5000806820F003000A4988600846806820F01A
:100A6000F00088600846806840F4C060886000BF7D
:100A70000348806800F00C000028F9D1704700009E
:100A8000001002402148C06C40F002001F49C864B9
:100A90001F48006820F440501D490860084600685F
:100AA00040F4005008600846006820F440400860A8
:100AB0000846006840F4004008601548203000688F
:100AC00040F0E0601249203108600846006840F0BC
:100AD000E04008600E480830006840F470400C495F
:100AE00008310860081F006820F04000091F0860F6
:100AF0000846006820F08000086005480C30006857
:100B000040F4A04002490C310860704700100240D8
:100B1000000400480648006E40F48040044908661E
:100B200003488830006840F00100C1F88800704731
:100B3000001002401D48C06C40F001001B49C86411
:100B40004FF09040006820F030004FF09041086076
:100B50000846006840F0200008600846006820F061
:100B6000C00008600846006840F080000860084641
:100B7000006A40F4E06008620846006A40F4E04021
:100B800008620846806840F0F000886008464068C7
:100B900020F0040048600846406820F008004860E3
:100BA0000846C06840F05000C8607047001002401E
:100BB0000648806D40F40030044988650348883059
:100BC000006840F00400C1F888007047001002403F
:100BD000642242430723B2FBF3F100BF4A1E111EF9
:100BE000FCD17047016821F001010160016821F02A
:100BF00010210160016821F400410160416821F485
:100C000040514160C16841F4D071C160016841F058
:100C10000C010160016841F0010101607047F0B50D
:100C200004460E46174600250CE000BFE06900F0C0
:100C300080000028FAD0705D20854FF49670FFF791
:100C4000C7FF6D1CBD42F0D300BFE06900F040005B
:100C50000028FAD0E06920F04000E061F0BD00001B
:100C600038B504460D46E0B20090012269460248BC
:100C7000FFF7D5FF204638BD004400401CB5FFF704
:100C8000CFFEFFF787FCFFF7CDFC0220FFF7AEFE9B
:100C900016A0FFF713FB4FF0A40841461548FFF7D5
:100CA00065FD064626B1314613A0FFF707FB02E0BB
:100CB00018A0FFF703FB6F4617E006233A464146AC
:100CC0000C48FFF779FD002406E01DF804202146BA
:100CD00016A0FFF7F3FA641C062CF6DB002500E0F3
:100CE0006D1C4CF250308542FADBE6E768656C6CAF
:100CF0006F0A0000005400406572726F7220696EC6
:100D0000204E756E636875636B20696E697420256B
:100D1000690A00004E756E636875636B20496E69E1
:100D20007469616C697A65640A0000006F666673B5
:100D300065742030783025693A2025780A00000053
:100D40004FF04070E1EE100A7047303132333435E5
:100D500036373839414243444546403058003031F7
:100D60003233343536373839616263646566403012
:100D700078000000940D000800000020080000002A
:100D8000C40100089C0D0008080000206006000057
:0C0D9000E001000800000000000000006E
:040000050800018965
:00000001FF
