:020000040800F2
:10000000980600202902000865020008670200081F
:10001000690200086B0200086D0200080000000081
:100020000000000000000000000000006F02000857
:10003000710200080000000073020008E90B0008CC
:1000400077020008770200087702000877020008AC
:10005000770200087702000877020008770200089C
:10006000770200087702000877020008770200088C
:10007000770200087702000877020008770200087C
:10008000770200087702000877020008770200086C
:10009000770200087702000877020008770200085C
:1000A000770200087702000877020008770200084C
:1000B0007702000877020008E90C000877020008C0
:1000C000770200087702000877020008770200082C
:1000D000770200087702000877020008770200081C
:1000E000770200087702000877020008770200080C
:1000F00077020008770200087702000877020008FC
:1001000077020008770200087702000877020008EB
:1001100077020008770200087702000877020008DB
:1001200077020008770200087702000877020008CB
:1001300077020008770200087702000877020008BB
:1001400077020008770200087702000877020008AB
:10015000770200087702000877020008770200089B
:10016000770200087702000877020008770200088B
:1001700077020008770200087702000800000000FC
:10018000770200087702000800F002F800F03CF85F
:100190000AA090E8000C82448344AAF10107DA45E2
:1001A00001D100F031F8AFF2090EBAE80F0013F0F8
:1001B000010F18BFFB1A43F001031847BC100000E1
:1001C000DC100000103A24BF78C878C1FAD8520772
:1001D00024BF30C830C144BF04680C6070470000C1
:1001E0000023002400250026103A28BF78C1FBD840
:1001F000520728BF30C148BF0B6070471FB501F0E0
:1002000035F81FBD10B510BD00F08EF81146FFF790
:10021000F5FF00F001FF00F0C0F803B4FFF7F2FFB4
:1002200003BC00F0C7F8000016481749174B994265
:100230003CBF50F8042B41F8042BF8D314494FF07D
:1002400000028B4238BF43F8042BFAD3DFF8440096
:10025000016841F470010160BFF34F8FBFF36F8FEE
:100260000D480047FEE7FEE7FEE7FEE7FEE7FEE794
:10027000FEE7FEE7FEE7FEE708480949094A0A4BA0
:100280007047000098120008000000203400002091
:100290009806002088ED00E0890100089800002001
:1002A0009806002098020020980200200FB404490C
:1002B00010B503AA029800F009F810BC5DF814FB11
:1002C000280000207047704770470000074B70B54A
:1002D0000D467B4400F011F80446284600F020F853
:1002E00010B14FF0FF3070BD204670BD270D0000EB
:1002F00001694A1C02610878704700B58FB0CDE9EA
:1003000001310021059105497944CDE903101146D9
:10031000684600F02EF80FB000BD0000E5FFFFFFBB
:10032000007B00F080007047754600F03FF8AE4655
:1003300005006946534620F00700854618B020B5F1
:10034000FFF79AFFBDE820404FF000064FF000078E
:100350004FF000084FF0000B21F00701AC46ACE86D
:10036000C009ACE8C009ACE8C009ACE8C0098D46DA
:1003700070472DE9F04106460024D6E90170F56882
:100380008046304603E04146B847641C3046A847E3
:100390000028F8D12046BDE8F08110B50446AFF33F
:1003A00000802046BDE81040FFF737BF0048704787
:1003B0003400002001491820ABBEFEE726000200F1
:1003C000704700002248C06C40F002002049C86419
:1003D0002048006820F440301E4908600846006844
:1003E00040F4003008600846006820F4404008608F
:1003F0000846006840F4004008600846406A40F043
:1004000004011448416213482030006840F08040E5
:100410001049203108600F480830006840F47030FF
:100420000C4908310860081F006840F48070091FFB
:1004300008600846006840F08000086005480C30FD
:10044000006840F4A03003490C3108607047000098
:10045000001002400004004850204E49896D41F4CC
:1004600000114C4A91654B498831096841F480512B
:10047000C2F888101146896B41F40011916311464E
:10048000896B21F4001191634349096821F001014E
:10049000414A11601146096821F4805111601146EA
:1004A000096821F4706111601146096841F080010A
:1004B00011601146096821F400311160111D0968AD
:1004C00021F40061121D116011460968334A11437D
:1004D000314A121D116030491031096821F0704114
:1004E0002D4A103211601146096821F47001116023
:1004F0001146096821F4702111601146096821F440
:100500007F4111601146096821F0FF011160114619
:10051000096841F0E04111601146096841F4700139
:1005200011601146096841F4702111601146096893
:1005300041F4A06111601146096841F005011160A4
:1005400015490831096821F40041134A0832116045
:10055000111D096821F40041121D1160111F096865
:1005600021F48061121F1160114609686FF30901BF
:1005700011601146096841EA40011160114609689D
:1005800041F4004111600449096841F00101024A47
:1005900011607047001002400054004000800002CB
:1005A0002048C06C40F002001E49C8641E48006824
:1005B00020F440101C4908600846006840F4001010
:1005C00008600846006820F440000860084600689B
:1005D00040F4000008600846406A40F48061124818
:1005E0004162406A40F480410F4841620E48083041
:1005F000006840F470000C4908310860081F00686A
:1006000040F48060091F08600846006840F40060FC
:10061000086005480C30006840F4A00002490C3125
:1006200008607047001002400004004850204C4908
:10063000896D41F480014A4A9165494988310968C8
:1006400041F48041C2F888101146896B41F4800161
:1006500091631146896B21F48001916341490968D6
:1006600021F001013F4A11601146096821F48051CF
:1006700011601146096821F4706111601146096822
:1006800041F0800111601146096821F400311160C8
:10069000111D096821F40061121D116011460968DD
:1006A000314A11432F4A121D11602E491031096839
:1006B00021F070412B4A103211601146096821F473
:1006C000700111601146096821F470211160114612
:1006D000096821F47F4111601146096821F0FF018A
:1006E00011601146096841F0805111601146096896
:1006F00011601146096811601146096841F42061D2
:1007000011601146096841F00A011160154908316C
:10071000096821F40041134A08321160111D09686B
:1007200021F40041121D1160111F096821F480613C
:10073000121F1160114609686FF30901116011461B
:10074000096841EA400111601146096841F400411D
:1007500011600449096841F00101024A11607047C3
:100760000010024000580040008000022DE9F041D6
:100770000446884617461D46002D00DD1FB94FF080
:10078000FF30BDE8F081204600F085F801232A46BD
:100790004146204600F056F8002608E000BFA06958
:1007A00000F004000028FAD0606AB855761CAE420A
:1007B000F4DB00BFA06900F040000028FAD020461A
:1007C00000F05EF80020DCE72DE9F04104468846A1
:1007D00017461D46002D00DD1FB94FF0FF30BDE864
:1007E000F081204600F057F800232A464146204673
:1007F00000F028F8002802DA4FF0FF30EFE700267B
:1008000008E000BFA06900F002000028FAD0B85D3F
:10081000A062761CAE42F4DB00BFA06900F040008D
:1008200020B9A06900F010000028F6D0A06900F0FF
:10083000100010B14FF0FF30D1E7204600F020F853
:100840000020CCE770B504460D46002161680B48D6
:100850000140012B02D141F4806101E021F480616B
:10086000C5F309004FF47F0606EA02463043014310
:1008700041F400516160002070BD0000009800FC50
:10088000416841F48041416000BF816901F020016D
:100890000029FAD0704700BF816901F40041B1F529
:1008A000004FF9D07047000010B50446022C06D165
:1008B00000F040FB00F000FB014800F055FB10BDCC
:1008C0000044004010B54D48C06C40F002004B4958
:1008D000C8644B48006820F4405049490860084605
:1008E000006840F40050086045482030006820F05F
:1008F00070604349203108600846006840F000708D
:1009000008603F480C30006820F440503C490C31EE
:1009100008603A48806D40F00400384988653948DD
:10092000006840F0030037490860364828380068FE
:1009300040F080003349283908603248001D0068C3
:100940004FF6FF7108432F49091D08602D481038E4
:10095000006840F001002B49103908602948083828
:10096000006840F00B0027490839086025481C380A
:10097000006840F20321084322491C3908602148DD
:100980001438006840F001001E4914390860081F3F
:10099000006820F00100091F08601A482838006824
:1009A00020F010001749283908600846006840F018
:1009B000010008601E2000280DDB00BF00BF00F012
:1009C0001F02012191404209920002F1E022C2F887
:1009D000001100BF00BF00BF1E200221002804DB61
:1009E0000A07130E084A135406E00A07140E074AB2
:1009F00000F00F031B1FD45400BF10BD00100240B5
:100A0000000400482808004000E400E018ED00E081
:100A100070B505460E4680223146284600F06DF836
:100A2000002405E020223146284600F088F8641CA6
:100A3000462CF7DB70BD70B504460D46322000F041
:100A4000D1FA30222946204600F057F8052000F060
:100A5000C9FA30222946204600F04FF8012000F064
:100A6000C1FA30222946204600F047F80F2000F056
:100A7000B9FA20222946204600F03FF80F2000F066
:100A8000B1FA28222946204600F037F8012000F06C
:100A9000A9FA08222946204600F02FF8012000F08C
:100AA000A1FA01222946204600F027F8022000F092
:100AB00099FA06222946204600F01FF8012000F08E
:100AC00091FA0C222946204600F017F870BDF0B5C7
:100AD00006460F4615461C4615B1012D06D102E00B
:100AE00044F0800402E044F0C00400BF00BFE2B262
:100AF0003946304600F001F8F0BD2DE9F8410746CF
:100B00008846144604F0F005F02000EA041645F08B
:100B10000C008DF8000045F008008DF8010046F04B
:100B20000C008DF8020046F008008DF80300042345
:100B30006A4641463846FFF747FEBDE8F8812DE991
:100B4000F84107468846144604F0F005F02000EA14
:100B5000041645F00D008DF8000045F009008DF8F1
:100B6000010046F00D008DF8020046F009008DF8F6
:100B7000030004236A4641463846FFF725FEBDE8D8
:100B8000F88170B505460E46144608E014F8012BAE
:100B900031462846FFF7D3FF192000F023FA2078CA
:100BA0000028F3D170BD00002DE9FC4104460D463C
:100BB0000BA0006801900BA00068009001AE6F468A
:100BC0000223324629462046FFF7FEFD80460223D7
:100BD0003A4629462046FFF7F7FD8046BDE8FC81EE
:100BE000F0550000FB00000002480068401C01496D
:100BF000086070473000002010B500204FF0E02161
:100C0000086140F69F70486100208861401E0028FE
:100C10000DDB00BF00BF00F01F020121914042091F
:100C2000920002F1E022C2F8001100BF00BF00BF35
:100C30004FF0FF300121002804DB0A07130E0F4A92
:100C4000135406E00A07140E0D4A00F00F031B1F91
:100C5000D45400BF4FF0E020006940F002004FF094
:100C6000E02108610846006940F004000861084678
:100C7000006940F00100086110BD000000E400E0E0
:100C800018ED00E01748006800F001001549086001
:100C90000846006820F0F00008600846006840F050
:100CA000600008600846006840F0080008600846D8
:100CB000006840F00100086000BF0A48006800F0CA
:100CC00002000028F9D00748806820F00300054999
:100CD000886000BF0348806800F00C000028F9D14C
:100CE00070470000001002402348006800F0010037
:100CF00058B122480068401C204908601E4800681E
:100D000020F001001C49086035E01B48006800F035
:100D1000020080B31A48006800F0400040B1002093
:100D200016490860144824300068164908601CE021
:100D3000114824300068144908601048006868B100
:100D4000084600680F490968401A0C4909684FF4C1
:100D5000803202FB01000D49086006E00A48006885
:100D600008490968401A094908600348006820F0EA
:100D70000200014908607047100800400800002088
:100D80001004004804000020000000200C00002097
:100D90004748C06C40F001004549C8644FF090409E
:100DA000006820F440204FF0904108600846006839
:100DB00040F4002008600846C06820F44060C86025
:100DC0000846406820F0200048600846806840F4EB
:100DD000402088600846406A20F0F0014FF09040C3
:100DE0004162406A40F010014FF09040416230484B
:100DF000006E40F400602E4908662E48006840F0FE
:100E000003002C4908602B482838006840F0800017
:100E10002849283908602748001D00684FF6FF71EF
:100E200008432449091D086022481030006840F03A
:100E30000A002049103108601E481038006840F44C
:100E4000C0401C49103908600846006840F4006042
:100E5000086018480838006840F010001549083943
:100E6000086014481C30006840F4084011491C31E7
:100E7000086010481438006840F001000D4914392A
:100E800008600C481C38006840F0010009491C3912
:100E90000860081D006820F00100091D0860054871
:100EA0002838006840F0110002492839086070476E
:100EB00000100240282C01401D48C06C40F0010089
:100EC0001B49C8644FF09040006820F030004FF09C
:100ED000904108600846006840F02000086008461D
:100EE000006820F0C00008600846006840F08000FC
:100EF00008600846006A40F4E06008620846006A3C
:100F000040F4E04008620846806840F0F0008860E5
:100F10000846406820F0040048600846406820F019
:100F2000080048600846C06840F05000C86070473C
:100F3000001002400648806D40F400300449886586
:100F400003488830006840F00400C1F8880070470A
:100F500000100240642242430723B2FBF3F100BFBA
:100F60004A1E111EFCD17047016821F00101016089
:100F7000016821F010210160016821F40041016045
:100F8000416821F440514160C16841F4D071C160B1
:100F9000016841F00C010160016841F0010101604C
:100FA0007047F0B504460E46174600250CE000BF1A
:100FB000E06900F080000028FAD0705D20854FF4D1
:100FC0001670FFF7C7FF6D1CBD42F0D300BFE0698C
:100FD00000F040000028FAD0E06920F04000E06115
:100FE000F0BD0000044A116800BF034A1268521A9B
:100FF0008242FAD3704700003000002038B5044622
:101000000D46E0B20090012269460248FFF7C9FF91
:10101000204638BD004400400EB5002001900290EB
:10102000009001ADA4264E27FFF72CFEFFF7E4FD4C
:10103000FFF7C8F9FFF710FAFFF7B2FAFFF7F6FA71
:101040000220FFF731FCFFF73DFCFFF7A1FE394618
:101050006B48FFF7F0FC0A20FFF7C4FF31466948F0
:10106000FFF7A2FDCAE06848006800284DD1674834
:10107000006800282BD139466148FFF7C9FC0120E0
:10108000FFF7B0FF00231A4639465D48FFF71FFD02
:101090000120FFF7A7FF5EA239465948FFF771FD0F
:1010A0000120FFF79FFF0023012239465448FFF734
:1010B0000EFD0120FFF796FF59A239465048FFF771
:1010C00060FD0120FFF78EFF0120504908600123D9
:1010D0006A4631464B48FFF777FB0A20FFF782FF4D
:1010E00006232A4631464748FFF740FB687900F05F
:1010F000020028B9012044490860002043490860E3
:101100004FF49670FFF76EFF72E039463C48FFF7E8
:101110007FFC4848006846F2A811884202D90020A6
:1011200045490860454800684549086045480068E9
:10113000454908603F4800683A21B0FBF1F03E495C
:10114000086008460068801E00016421B0FBF1F0D1
:10115000C0F10F003D490860084600680C2802DD18
:101160003BA0FFF7A3F8002422E0234600223946E3
:101170002348FFF7ACFC0120FFF734FFFF2239467C
:101180001F48FFF7DCFC0A20FFF72CFF2346012253
:1011900039461B48FFF79BFC0120FFF723FFFF2286
:1011A00039461748FFF7CBFC0A20FFF71BFF641CEA
:1011B000264800688442D8DB01236A46314611483C
:1011C000FFF702FB0A20FFF70DFF06232A463146F0
:1011D0000C48FFF7CBFA687900F0020020B9002034
:1011E00009490860094908604FF49670FFF7FAFE54
:1011F000002400E0641CB4F57A7FFBDB33E70000D9
:10120000005800400054004020000020240000202E
:101210004261636B2055702053656E736F720000DE
:101220005072657373204320746F2053746172741D
:10123000000000000C0000201000002024080040E6
:1012400018000020242C01401C0000201400002065
:10125000546F6F20636C6F736521204472697665EB
:1012600020666F7277617264210A00004FF040704F
:10127000E1EE100A704700009812000800000020FC
:1012800034000000C4010008CC1200083400002023
:1012900064060000E00100080000000000000000FB
:1012A000000000000000000000000000000000003E
:1012B000000000000000000000000000000000002E
:0C12C00000000000000000000000000022
:040000050800018965
:00000001FF
