:020000040800F2
:10000000600600200D020008490200084B020008AB
:100010004D0200084F0200085102000800000000D5
:100020000000000000000000000000005302000873
:10003000550200080000000057020008590200089D
:100040005B0200085B0200085B0200085B0200081C
:100050005B0200085B0200085B0200085B0200080C
:100060005B0200085B0200085B0200085B020008FC
:100070005B0200085B0200085B0200085B020008EC
:100080005B0200085B0200085B0200085B020008DC
:100090005B0200085B0200085B0200085B020008CC
:1000A0005B0200085B0200085B0200085B020008BC
:1000B0005B0200085B0200085B0200085B020008AC
:1000C0005B0200085B0200085B0200085B0200089C
:1000D0005B0200085B0200085B0200085B0200088C
:1000E0005B0200085B0200085B0200085B0200087C
:1000F0005B0200085B0200085B0200085B0200086C
:100100005B0200085B0200085B0200085B0200085B
:100110005B0200085B0200085B0200085B0200084B
:100120005B0200085B0200085B0200085B0200083B
:100130005B0200085B0200085B0200085B0200082B
:100140005B0200085B0200085B0200085B0200081B
:100150005B0200085B0200085B0200085B0200080B
:100160005B0200085B0200085B0200085B020008FB
:100170005B0200085B0200085B0200080000000050
:100180005B0200085B02000800F002F800F02EF8A5
:100190000AA090E8000C82448344AAF10107DA45E2
:1001A00001D100F023F8AFF2090EBAE80F0013F006
:1001B000010F18BFFB1A43F001031847DC040000CD
:1001C000EC0400000023002400250026103A28BF7C
:1001D00078C1FBD8520728BF30C148BF0B607047B9
:1001E0001FB500F053FA1FBD10B510BD00F053F855
:1001F0001146FFF7F5FF00F02DFA00F071F803B497
:10020000FFF7F2FF03BC00F079F800001648174929
:10021000174B99423CBF50F8042B41F8042BF8D3FC
:1002200014494FF000028B4238BF43F8042BFAD335
:10023000DFF84400016841F470010160BFF34F8FA3
:10024000BFF36F8F0D480047FEE7FEE7FEE7FEE7CE
:10025000FEE7FEE7FEE7FEE7FEE7FEE7084809499E
:10026000094A0A4B70470000A80600080000002059
:10027000000000206006002088ED00E089010008F1
:100280006000002060060020600200206002002064
:10029000704770477047754600F02CF8AE46050071
:1002A0006946534620F00700854618B020B5FFF791
:1002B000D5FFBDE820404FF000064FF000074FF09B
:1002C00000084FF0000B21F00701AC46ACE8C00974
:1002D000ACE8C009ACE8C009ACE8C0098D4670477D
:1002E00010B50446AFF300802046BDE81040FFF78C
:1002F00086BF000000487047000000200149182018
:10030000ABBEFEE7260002007047000010B50446B1
:10031000022C06D100F070F900F030F9014800F02D
:100320007BF910BD004400400E48C06C40F0010055
:100330000C49C8644FF09040006820F440604FF0D2
:10034000904108600846006840F4806008600846F4
:10035000406820F0200048600846C06820F44060F3
:10036000C8607047001002401A48C06C40F001009D
:100370001849C8641848006820F47C401649086091
:100380000846006840F428400860081D006820F016
:10039000E000091D0860081D006840F47C40091D4C
:1003A0000860081D006820F47C40091D08600A48A8
:1003B0002030006840F4A00007492031086008465A
:1003C000006840F0A06008600846006840F0A04067
:1003D0000860704700100240000400483348006E77
:1003E00040F48050314908660846006C40F4805063
:1003F00008640846006C20F4805008642C480068AB
:1004000020F040002A4908600846006820F4806017
:1004100008600846006820F400400860084600684C
:1004200020F4804008600846006820F080000860E2
:100430000846406840F4E06048600846406820F0A4
:10044000100048600846006820F002000860084676
:10045000006820F0010008600846006820F03800BD
:1004600008600846006840F0080008600846006818
:1004700020F4005008600846006840F0040008605E
:100480000846006840F4007008600846406840F084
:10049000080048600846406840F4805048600846BC
:1004A000006840F040000860704700000010024003
:1004B00000300140002108E000BF826802F0020223
:1004C000002AFAD000220273491C2629F4DB704767
:1004D00010B50446002304E0F821204600F00DF892
:1004E0005B1C082BF8DB002304E0E021204600F031
:1004F00004F85B1C102BF8DB10BD00BF826802F013
:100500000202002AFAD0017300BF826802F0800262
:10051000002AFAD1704700001748006800F0010077
:10052000154908600846006820F0F0000860084699
:10053000006840F0900008600846006840F0010044
:1005400008600846006840F48070086000BF0A48F0
:10055000006800F002000028F9D00748806820F009
:1005600003000549886000BF0348806800F00C0064
:100570000028F9D170470000001002401D48C06CEF
:1005800040F001001B49C8644FF09040006820F023
:1005900030004FF0904108600846006840F02000AD
:1005A00008600846006820F0C0000860084600683F
:1005B00040F0800008600846006A40F4E06008628D
:1005C0000846006A40F4E04008620846806840F04F
:1005D000F00088600846406820F004004860084643
:1005E000406820F0080048600846C06840F05000AD
:1005F000C8607047001002400648806D40F400302B
:100600000449886503488830006840F00800C1F854
:100610008800704700100240016821F0010101606C
:10062000016821F010210160016821F4004101609E
:10063000416821F440514160C16840F28262114337
:10064000C160016841F00C010160016841F00101E5
:1006500001607047FFF760FFFFF766FE0220FFF7BB
:1006600055FEFFF781FEFFF7B9FE002400BF0AE048
:10067000002403E00448FFF72BFF641CFF2CF9DD86
:100680000148FFF717FFF3E7003001404FF04070DB
:10069000E1EE100A70470000A806000800000020E4
:0806A00060060000C40100081F
:040000050800018965
:00000001FF
